{
  "_format": "hh-sol-artifact-1",
  "contractName": "JoviTokenCrowdsale",
  "sourceName": "contracts/JoviTokenCrowdsale.sol",
  "abi": [
    {
      "constant": true,
      "inputs": [],
      "name": "hasClosed",
      "outputs": [
        {
          "name": "",
          "type": "bool"
        }
      ],
      "payable": false,
      "stateMutability": "view",
      "type": "function"
    },
    {
      "constant": true,
      "inputs": [],
      "name": "founderPercentage",
      "outputs": [
        {
          "name": "",
          "type": "uint256"
        }
      ],
      "payable": false,
      "stateMutability": "view",
      "type": "function"
    },
    {
      "constant": true,
      "inputs": [],
      "name": "rate",
      "outputs": [
        {
          "name": "",
          "type": "uint256"
        }
      ],
      "payable": false,
      "stateMutability": "view",
      "type": "function"
    },
    {
      "constant": true,
      "inputs": [],
      "name": "IcoRate",
      "outputs": [
        {
          "name": "",
          "type": "uint256"
        }
      ],
      "payable": false,
      "stateMutability": "view",
      "type": "function"
    },
    {
      "constant": true,
      "inputs": [],
      "name": "cap",
      "outputs": [
        {
          "name": "",
          "type": "uint256"
        }
      ],
      "payable": false,
      "stateMutability": "view",
      "type": "function"
    },
    {
      "constant": true,
      "inputs": [],
      "name": "goal",
      "outputs": [
        {
          "name": "",
          "type": "uint256"
        }
      ],
      "payable": false,
      "stateMutability": "view",
      "type": "function"
    },
    {
      "constant": true,
      "inputs": [],
      "name": "weiRaised",
      "outputs": [
        {
          "name": "",
          "type": "uint256"
        }
      ],
      "payable": false,
      "stateMutability": "view",
      "type": "function"
    },
    {
      "constant": true,
      "inputs": [],
      "name": "tokenSalePercentage",
      "outputs": [
        {
          "name": "",
          "type": "uint256"
        }
      ],
      "payable": false,
      "stateMutability": "view",
      "type": "function"
    },
    {
      "constant": true,
      "inputs": [],
      "name": "isOpen",
      "outputs": [
        {
          "name": "",
          "type": "bool"
        }
      ],
      "payable": false,
      "stateMutability": "view",
      "type": "function"
    },
    {
      "constant": true,
      "inputs": [],
      "name": "founderTimelock",
      "outputs": [
        {
          "name": "",
          "type": "address"
        }
      ],
      "payable": false,
      "stateMutability": "view",
      "type": "function"
    },
    {
      "constant": true,
      "inputs": [],
      "name": "closingTime",
      "outputs": [
        {
          "name": "",
          "type": "uint256"
        }
      ],
      "payable": false,
      "stateMutability": "view",
      "type": "function"
    },
    {
      "constant": false,
      "inputs": [],
      "name": "finalize",
      "outputs": [],
      "payable": false,
      "stateMutability": "nonpayable",
      "type": "function"
    },
    {
      "constant": true,
      "inputs": [],
      "name": "capReached",
      "outputs": [
        {
          "name": "",
          "type": "bool"
        }
      ],
      "payable": false,
      "stateMutability": "view",
      "type": "function"
    },
    {
      "constant": true,
      "inputs": [],
      "name": "wallet",
      "outputs": [
        {
          "name": "",
          "type": "address"
        }
      ],
      "payable": false,
      "stateMutability": "view",
      "type": "function"
    },
    {
      "constant": false,
      "inputs": [],
      "name": "renounceOwnership",
      "outputs": [],
      "payable": false,
      "stateMutability": "nonpayable",
      "type": "function"
    },
    {
      "constant": true,
      "inputs": [],
      "name": "founderFund",
      "outputs": [
        {
          "name": "",
          "type": "address"
        }
      ],
      "payable": false,
      "stateMutability": "view",
      "type": "function"
    },
    {
      "constant": true,
      "inputs": [],
      "name": "goalReached",
      "outputs": [
        {
          "name": "",
          "type": "bool"
        }
      ],
      "payable": false,
      "stateMutability": "view",
      "type": "function"
    },
    {
      "constant": true,
      "inputs": [],
      "name": "foundationPercentage",
      "outputs": [
        {
          "name": "",
          "type": "uint256"
        }
      ],
      "payable": false,
      "stateMutability": "view",
      "type": "function"
    },
    {
      "constant": true,
      "inputs": [],
      "name": "owner",
      "outputs": [
        {
          "name": "",
          "type": "address"
        }
      ],
      "payable": false,
      "stateMutability": "view",
      "type": "function"
    },
    {
      "constant": true,
      "inputs": [],
      "name": "isOwner",
      "outputs": [
        {
          "name": "",
          "type": "bool"
        }
      ],
      "payable": false,
      "stateMutability": "view",
      "type": "function"
    },
    {
      "constant": true,
      "inputs": [],
      "name": "investorMaxCap",
      "outputs": [
        {
          "name": "",
          "type": "uint256"
        }
      ],
      "payable": false,
      "stateMutability": "view",
      "type": "function"
    },
    {
      "constant": true,
      "inputs": [],
      "name": "partnersFund",
      "outputs": [
        {
          "name": "",
          "type": "address"
        }
      ],
      "payable": false,
      "stateMutability": "view",
      "type": "function"
    },
    {
      "constant": true,
      "inputs": [],
      "name": "foundationFund",
      "outputs": [
        {
          "name": "",
          "type": "address"
        }
      ],
      "payable": false,
      "stateMutability": "view",
      "type": "function"
    },
    {
      "constant": false,
      "inputs": [
        {
          "name": "_stage",
          "type": "uint256"
        }
      ],
      "name": "setCrowdsaleStage",
      "outputs": [],
      "payable": false,
      "stateMutability": "nonpayable",
      "type": "function"
    },
    {
      "constant": true,
      "inputs": [],
      "name": "investorMinCap",
      "outputs": [
        {
          "name": "",
          "type": "uint256"
        }
      ],
      "payable": false,
      "stateMutability": "view",
      "type": "function"
    },
    {
      "constant": true,
      "inputs": [],
      "name": "finalized",
      "outputs": [
        {
          "name": "",
          "type": "bool"
        }
      ],
      "payable": false,
      "stateMutability": "view",
      "type": "function"
    },
    {
      "constant": true,
      "inputs": [],
      "name": "partnersTimelock",
      "outputs": [
        {
          "name": "",
          "type": "address"
        }
      ],
      "payable": false,
      "stateMutability": "view",
      "type": "function"
    },
    {
      "constant": true,
      "inputs": [],
      "name": "openingTime",
      "outputs": [
        {
          "name": "",
          "type": "uint256"
        }
      ],
      "payable": false,
      "stateMutability": "view",
      "type": "function"
    },
    {
      "constant": true,
      "inputs": [],
      "name": "releaseTime",
      "outputs": [
        {
          "name": "",
          "type": "uint256"
        }
      ],
      "payable": false,
      "stateMutability": "view",
      "type": "function"
    },
    {
      "constant": true,
      "inputs": [
        {
          "name": "_beneficiary",
          "type": "address"
        }
      ],
      "name": "getUserContribution",
      "outputs": [
        {
          "name": "",
          "type": "uint256"
        }
      ],
      "payable": false,
      "stateMutability": "view",
      "type": "function"
    },
    {
      "constant": false,
      "inputs": [
        {
          "name": "refundee",
          "type": "address"
        }
      ],
      "name": "claimRefund",
      "outputs": [],
      "payable": false,
      "stateMutability": "nonpayable",
      "type": "function"
    },
    {
      "constant": true,
      "inputs": [],
      "name": "stage",
      "outputs": [
        {
          "name": "",
          "type": "uint8"
        }
      ],
      "payable": false,
      "stateMutability": "view",
      "type": "function"
    },
    {
      "constant": true,
      "inputs": [],
      "name": "preIcoRate",
      "outputs": [
        {
          "name": "",
          "type": "uint256"
        }
      ],
      "payable": false,
      "stateMutability": "view",
      "type": "function"
    },
    {
      "constant": true,
      "inputs": [
        {
          "name": "",
          "type": "address"
        }
      ],
      "name": "contribution",
      "outputs": [
        {
          "name": "",
          "type": "uint256"
        }
      ],
      "payable": false,
      "stateMutability": "view",
      "type": "function"
    },
    {
      "constant": true,
      "inputs": [],
      "name": "foundationTimelock",
      "outputs": [
        {
          "name": "",
          "type": "address"
        }
      ],
      "payable": false,
      "stateMutability": "view",
      "type": "function"
    },
    {
      "constant": false,
      "inputs": [
        {
          "name": "beneficiary",
          "type": "address"
        }
      ],
      "name": "buyTokens",
      "outputs": [],
      "payable": true,
      "stateMutability": "payable",
      "type": "function"
    },
    {
      "constant": false,
      "inputs": [
        {
          "name": "newOwner",
          "type": "address"
        }
      ],
      "name": "transferOwnership",
      "outputs": [],
      "payable": false,
      "stateMutability": "nonpayable",
      "type": "function"
    },
    {
      "constant": true,
      "inputs": [],
      "name": "partnersPercentage",
      "outputs": [
        {
          "name": "",
          "type": "uint256"
        }
      ],
      "payable": false,
      "stateMutability": "view",
      "type": "function"
    },
    {
      "constant": true,
      "inputs": [],
      "name": "token",
      "outputs": [
        {
          "name": "",
          "type": "address"
        }
      ],
      "payable": false,
      "stateMutability": "view",
      "type": "function"
    },
    {
      "inputs": [
        {
          "name": "_preIcoRate",
          "type": "uint256"
        },
        {
          "name": "_IcoRate",
          "type": "uint256"
        },
        {
          "name": "_wallet",
          "type": "address"
        },
        {
          "name": "_token",
          "type": "address"
        },
        {
          "name": "_cap",
          "type": "uint256"
        },
        {
          "name": "_goal",
          "type": "uint256"
        },
        {
          "name": "_openingTime",
          "type": "uint256"
        },
        {
          "name": "_closingTime",
          "type": "uint256"
        },
        {
          "name": "_founderFund",
          "type": "address"
        },
        {
          "name": "_foundationFund",
          "type": "address"
        },
        {
          "name": "_partnersFund",
          "type": "address"
        },
        {
          "name": "_releaseTime",
          "type": "uint256"
        }
      ],
      "payable": false,
      "stateMutability": "nonpayable",
      "type": "constructor"
    },
    {
      "payable": true,
      "stateMutability": "payable",
      "type": "fallback"
    },
    {
      "anonymous": false,
      "inputs": [
        {
          "indexed": true,
          "name": "previousOwner",
          "type": "address"
        },
        {
          "indexed": true,
          "name": "newOwner",
          "type": "address"
        }
      ],
      "name": "OwnershipTransferred",
      "type": "event"
    },
    {
      "anonymous": false,
      "inputs": [],
      "name": "CrowdsaleFinalized",
      "type": "event"
    },
    {
      "anonymous": false,
      "inputs": [
        {
          "indexed": false,
          "name": "prevClosingTime",
          "type": "uint256"
        },
        {
          "indexed": false,
          "name": "newClosingTime",
          "type": "uint256"
        }
      ],
      "name": "TimedCrowdsaleExtended",
      "type": "event"
    },
    {
      "anonymous": false,
      "inputs": [
        {
          "indexed": true,
          "name": "purchaser",
          "type": "address"
        },
        {
          "indexed": true,
          "name": "beneficiary",
          "type": "address"
        },
        {
          "indexed": false,
          "name": "value",
          "type": "uint256"
        },
        {
          "indexed": false,
          "name": "amount",
          "type": "uint256"
        }
      ],
      "name": "TokensPurchased",
      "type": "event"
    }
  ],
  "bytecode": "0x60806040526046600b55600a600c55600a600d55600a600e5566071afd498d00006016556802b5e3af16b18800006017556000601960006101000a81548160ff021916908360018111156200005057fe5b02179055503480156200006257600080fd5b50604051610180806200604c83398101806040526101808110156200008657600080fd5b810190808051906020019092919080519060200190929190805190602001909291908051906020019092919080519060200190929190805190602001909291908051906020019092919080519060200190929190805190602001909291908051906020019092919080519060200190929190805190602001909291905050508686868a8f8e8e60016000806101000a81548160ff0219169083151502179055506000831115156200019f576040517f08c379a00000000000000000000000000000000000000000000000000000000081526004018080602001828103825260148152602001807f43726f776473616c653a2072617465206973203000000000000000000000000081525060200191505060405180910390fd5b600073ffffffffffffffffffffffffffffffffffffffff168273ffffffffffffffffffffffffffffffffffffffff16141515156200026b576040517f08c379a00000000000000000000000000000000000000000000000000000000081526004018080602001828103825260258152602001807f43726f776473616c653a2077616c6c657420697320746865207a65726f20616481526020017f647265737300000000000000000000000000000000000000000000000000000081525060400191505060405180910390fd5b600073ffffffffffffffffffffffffffffffffffffffff168173ffffffffffffffffffffffffffffffffffffffff161415151562000337576040517f08c379a00000000000000000000000000000000000000000000000000000000081526004018080602001828103825260248152602001807f43726f776473616c653a20746f6b656e20697320746865207a65726f2061646481526020017f726573730000000000000000000000000000000000000000000000000000000081525060400191505060405180910390fd5b8260028190555081600160006101000a81548173ffffffffffffffffffffffffffffffffffffffff021916908373ffffffffffffffffffffffffffffffffffffffff16021790555080600060016101000a81548173ffffffffffffffffffffffffffffffffffffffff021916908373ffffffffffffffffffffffffffffffffffffffff1602179055505050506000811115156200043c576040517f08c379a00000000000000000000000000000000000000000000000000000000081526004018080602001828103825260198152602001807f43617070656443726f776473616c653a2063617020697320300000000000000081525060200191505060405180910390fd5b8060048190555050428210151515620004e3576040517f08c379a00000000000000000000000000000000000000000000000000000000081526004018080602001828103825260338152602001807f54696d656443726f776473616c653a206f70656e696e672074696d652069732081526020017f6265666f72652063757272656e742074696d650000000000000000000000000081525060400191505060405180910390fd5b818111151562000581576040517f08c379a00000000000000000000000000000000000000000000000000000000081526004018080602001828103825260378152602001807f54696d656443726f776473616c653a206f70656e696e672074696d652069732081526020017f6e6f74206265666f726520636c6f73696e672074696d6500000000000000000081525060400191505060405180910390fd5b816005819055508060068190555050506000600760006101000a81548160ff02191690831515021790555060008111151562000625576040517f08c379a000000000000000000000000000000000000000000000000000000000815260040180806020018281038252601e8152602001807f526566756e6461626c6543726f776473616c653a20676f616c2069732030000081525060200191505060405180910390fd5b6200063e62000fe2640100000000026401000000009004565b6200064862001014565b808273ffffffffffffffffffffffffffffffffffffffff1673ffffffffffffffffffffffffffffffffffffffff168152602001915050604051809103906000f0801580156200069b573d6000803e3d6000fd5b50600960006101000a81548173ffffffffffffffffffffffffffffffffffffffff021916908373ffffffffffffffffffffffffffffffffffffffff16021790555080600881905550506000620006ff6200100c640100000000026401000000009004565b905080600a60006101000a81548173ffffffffffffffffffffffffffffffffffffffff021916908373ffffffffffffffffffffffffffffffffffffffff1602179055508073ffffffffffffffffffffffffffffffffffffffff16600073ffffffffffffffffffffffffffffffffffffffff167f8be0079c531659141344cd1fd0a4f28419497f9722a3daafe3b4186f6b6457e060405160405180910390a35060008c1115156200083d576040517f08c379a000000000000000000000000000000000000000000000000000000000815260040180806020018281038252603c8152602001807f4a6f7669546f6b656e43726f776473616c653a2070726549636f52617465206981526020017f73206e6565647320746f2062652067726561746572207468616e20300000000081525060400191505060405180910390fd5b60008b111515620008dc576040517f08c379a00000000000000000000000000000000000000000000000000000000081526004018080602001828103825260398152602001807f4a6f7669546f6b656e43726f776473616c653a2049636f52617465206973206e81526020017f6565647320746f2062652067726561746572207468616e20300000000000000081525060400191505060405180910390fd5b60006016541115156200097d576040517f08c379a000000000000000000000000000000000000000000000000000000000815260040180806020018281038252603d8152602001807f4a6f7669546f6b656e43726f776473616c653a20496e766573746f724d696e4381526020017f6170206e6565647320746f2062652067726561746572207468616e203000000081525060400191505060405180910390fd5b600060175411151562000a1e576040517f08c379a000000000000000000000000000000000000000000000000000000000815260040180806020018281038252603d8152602001807f4a6f7669546f6b656e43726f776473616c653a20496e766573746f724d696e4381526020017f6170206e6565647320746f2062652067726561746572207468616e203000000081525060400191505060405180910390fd5b60175460165410151562000ae6576040517f08c379a00000000000000000000000000000000000000000000000000000000081526004018080602001828103825260488152602001807f4a6f7669546f6b656e43726f776473616c653a20496e766573746f724d696e4381526020017f61702073686f756c6420626520736d616c6c6572207468616e20496e7665737481526020017f6f724d617843617000000000000000000000000000000000000000000000000081525060600191505060405180910390fd5b876017541115151562000b87576040517f08c379a000000000000000000000000000000000000000000000000000000000815260040180806020018281038252603d8152602001807f4a6f7669546f6b656e43726f776473616c653a20496e766573746f724d61784381526020017f61702073686f756c6420626520736d616c6c6572207468616e2043617000000081525060400191505060405180910390fd5b87871115151562000c4c576040517f08c379a00000000000000000000000000000000000000000000000000000000081526004018080602001828103825260428152602001807f4a6f7669546f6b656e43726f776473616c653a2043616e74206372656174652081526020017f63726f776473616c6520476f616c2069732067726561746572207468616e204381526020017f617000000000000000000000000000000000000000000000000000000000000081525060600191505060405180910390fd5b600073ffffffffffffffffffffffffffffffffffffffff168473ffffffffffffffffffffffffffffffffffffffff161415151562000d18576040517f08c379a00000000000000000000000000000000000000000000000000000000081526004018080602001828103825260338152602001807f4a6f7669546f6b656e43726f776473616c653a20666f756e64657246756e642081526020017f697320746865207a65726f20616464726573730000000000000000000000000081525060400191505060405180910390fd5b600073ffffffffffffffffffffffffffffffffffffffff168373ffffffffffffffffffffffffffffffffffffffff161415151562000de4576040517f08c379a00000000000000000000000000000000000000000000000000000000081526004018080602001828103825260368152602001807f4a6f7669546f6b656e43726f776473616c653a20666f756e646174696f6e467581526020017f6e6420697320746865207a65726f20616464726573730000000000000000000081525060400191505060405180910390fd5b600073ffffffffffffffffffffffffffffffffffffffff168273ffffffffffffffffffffffffffffffffffffffff161415151562000eb0576040517f08c379a00000000000000000000000000000000000000000000000000000000081526004018080602001828103825260348152602001807f4a6f7669546f6b656e43726f776473616c653a20706172746e65727346756e6481526020017f20697320746865207a65726f206164647265737300000000000000000000000081525060400191505060405180910390fd5b8b601c8190555088601d60006101000a81548173ffffffffffffffffffffffffffffffffffffffff021916908373ffffffffffffffffffffffffffffffffffffffff16021790555083600f60006101000a81548173ffffffffffffffffffffffffffffffffffffffff021916908373ffffffffffffffffffffffffffffffffffffffff16021790555082601060006101000a81548173ffffffffffffffffffffffffffffffffffffffff021916908373ffffffffffffffffffffffffffffffffffffffff16021790555081601160006101000a81548173ffffffffffffffffffffffffffffffffffffffff021916908373ffffffffffffffffffffffffffffffffffffffff160217905550806012819055508b601a819055508a601b8190555050505050505050505050505062001025565b6000600160009054906101000a900473ffffffffffffffffffffffffffffffffffffffff16905090565b600033905090565b60405161188c80620047c083390190565b61378b80620010356000396000f3fe6080604052600436106200020b576000357c0100000000000000000000000000000000000000000000000000000000900463ffffffff1680631515bc2b146200022157806317cf691414620002535780632c4e722e1462000281578063337687d814620002af578063355274ea14620002dd57806340193883146200030b5780634042b66f146200033957806346daa242146200036757806347535d7b1462000395578063486ca15714620003c75780634b6753bc14620004215780634bb278f3146200044f5780634f9359451462000469578063521eb273146200049b578063715018a614620004f557806375071c4c146200050f5780637d3d65221462000569578063864329e3146200059b5780638da5cb5b14620005c95780638f32d59b14620006235780639250c3671462000655578063926f0c7b1462000683578063a3a3382b14620006dd578063a997f82f1462000737578063b25d7f541462000776578063b3f05b9714620007a4578063b63e53e014620007d6578063b7a8807c1462000830578063b91d4001146200085e578063bb8b2b47146200088c578063bffa55d514620008f5578063c040e6b8146200094a578063d1e58e0f1462000987578063e2dc431014620009b5578063ec0de26e1462000a1e578063ec8ac4d81462000a78578063f2fde38b1462000abf578063f45b9bed1462000b14578063fc0c546a1462000b42575b6200021f6200021962000b9c565b62000ba4565b005b3480156200022e57600080fd5b506200023962000d42565b604051808215151515815260200191505060405180910390f35b3480156200026057600080fd5b506200026b62000d4e565b6040518082815260200191505060405180910390f35b3480156200028e57600080fd5b506200029962000d54565b6040518082815260200191505060405180910390f35b348015620002bc57600080fd5b50620002c762000d5e565b6040518082815260200191505060405180910390f35b348015620002ea57600080fd5b50620002f562000d64565b6040518082815260200191505060405180910390f35b3480156200031857600080fd5b506200032362000d6e565b6040518082815260200191505060405180910390f35b3480156200034657600080fd5b506200035162000d78565b6040518082815260200191505060405180910390f35b3480156200037457600080fd5b506200037f62000d82565b6040518082815260200191505060405180910390f35b348015620003a257600080fd5b50620003ad62000d88565b604051808215151515815260200191505060405180910390f35b348015620003d457600080fd5b50620003df62000da4565b604051808273ffffffffffffffffffffffffffffffffffffffff1673ffffffffffffffffffffffffffffffffffffffff16815260200191505060405180910390f35b3480156200042e57600080fd5b506200043962000dca565b6040518082815260200191505060405180910390f35b3480156200045c57600080fd5b506200046762000dd4565b005b3480156200047657600080fd5b506200048162000f52565b604051808215151515815260200191505060405180910390f35b348015620004a857600080fd5b50620004b362000f68565b604051808273ffffffffffffffffffffffffffffffffffffffff1673ffffffffffffffffffffffffffffffffffffffff16815260200191505060405180910390f35b3480156200050257600080fd5b506200050d62000f92565b005b3480156200051c57600080fd5b5062000527620010d2565b604051808273ffffffffffffffffffffffffffffffffffffffff1673ffffffffffffffffffffffffffffffffffffffff16815260200191505060405180910390f35b3480156200057657600080fd5b5062000581620010f8565b604051808215151515815260200191505060405180910390f35b348015620005a857600080fd5b50620005b36200110e565b6040518082815260200191505060405180910390f35b348015620005d657600080fd5b50620005e162001114565b604051808273ffffffffffffffffffffffffffffffffffffffff1673ffffffffffffffffffffffffffffffffffffffff16815260200191505060405180910390f35b3480156200063057600080fd5b506200063b6200113e565b604051808215151515815260200191505060405180910390f35b3480156200066257600080fd5b506200066d6200119f565b6040518082815260200191505060405180910390f35b3480156200069057600080fd5b506200069b620011a5565b604051808273ffffffffffffffffffffffffffffffffffffffff1673ffffffffffffffffffffffffffffffffffffffff16815260200191505060405180910390f35b348015620006ea57600080fd5b50620006f5620011cb565b604051808273ffffffffffffffffffffffffffffffffffffffff1673ffffffffffffffffffffffffffffffffffffffff16815260200191505060405180910390f35b3480156200074457600080fd5b5062000774600480360360208110156200075d57600080fd5b8101908080359060200190929190505050620011f1565b005b3480156200078357600080fd5b506200078e620013a3565b6040518082815260200191505060405180910390f35b348015620007b157600080fd5b50620007bc620013a9565b604051808215151515815260200191505060405180910390f35b348015620007e357600080fd5b50620007ee620013c0565b604051808273ffffffffffffffffffffffffffffffffffffffff1673ffffffffffffffffffffffffffffffffffffffff16815260200191505060405180910390f35b3480156200083d57600080fd5b5062000848620013e6565b6040518082815260200191505060405180910390f35b3480156200086b57600080fd5b5062000876620013f0565b6040518082815260200191505060405180910390f35b3480156200089957600080fd5b50620008df60048036036020811015620008b257600080fd5b81019080803573ffffffffffffffffffffffffffffffffffffffff169060200190929190505050620013f6565b6040518082815260200191505060405180910390f35b3480156200090257600080fd5b5062000948600480360360208110156200091b57600080fd5b81019080803573ffffffffffffffffffffffffffffffffffffffff1690602001909291905050506200143f565b005b3480156200095757600080fd5b506200096262001664565b604051808260018111156200097357fe5b60ff16815260200191505060405180910390f35b3480156200099457600080fd5b506200099f62001677565b6040518082815260200191505060405180910390f35b348015620009c257600080fd5b5062000a0860048036036020811015620009db57600080fd5b81019080803573ffffffffffffffffffffffffffffffffffffffff1690602001909291905050506200167d565b6040518082815260200191505060405180910390f35b34801562000a2b57600080fd5b5062000a3662001695565b604051808273ffffffffffffffffffffffffffffffffffffffff1673ffffffffffffffffffffffffffffffffffffffff16815260200191505060405180910390f35b62000abd6004803603602081101562000a9057600080fd5b81019080803573ffffffffffffffffffffffffffffffffffffffff16906020019092919050505062000ba4565b005b34801562000acc57600080fd5b5062000b126004803603602081101562000ae557600080fd5b81019080803573ffffffffffffffffffffffffffffffffffffffff169060200190929190505050620016bb565b005b34801562000b2157600080fd5b5062000b2c62001748565b6040518082815260200191505060405180910390f35b34801562000b4f57600080fd5b5062000b5a6200174e565b604051808273ffffffffffffffffffffffffffffffffffffffff1673ffffffffffffffffffffffffffffffffffffffff16815260200191505060405180910390f35b600033905090565b6000809054906101000a900460ff16151562000c28576040517f08c379a000000000000000000000000000000000000000000000000000000000815260040180806020018281038252601f8152602001807f5265656e7472616e637947756172643a207265656e7472616e742063616c6c0081525060200191505060405180910390fd5b60008060006101000a81548160ff021916908315150217905550600034905062000c53828262001777565b600062000c608262001807565b905062000c79826003546200182790919063ffffffff16565b60038190555062000c8b8382620018b2565b8273ffffffffffffffffffffffffffffffffffffffff1662000cac62000b9c565b73ffffffffffffffffffffffffffffffffffffffff167f6faf93231a456e552dbc9961f58d9713ee4f2e69d15f1975b050ef0911053a7b8484604051808381526020018281526020019250505060405180910390a362000d0d8383620018c2565b62000d1762001969565b62000d23838362001a2f565b505060016000806101000a81548160ff02191690831515021790555050565b60006006544211905090565b600c5481565b6000601c54905090565b601b5481565b6000600454905090565b6000600854905090565b6000600354905090565b600b5481565b6000600554421015801562000d9f57506006544211155b905090565b601360009054906101000a900473ffffffffffffffffffffffffffffffffffffffff1681565b6000600654905090565b600760009054906101000a900460ff1615151562000e80576040517f08c379a00000000000000000000000000000000000000000000000000000000081526004018080602001828103825260278152602001807f46696e616c697a61626c6543726f776473616c653a20616c726561647920666981526020017f6e616c697a65640000000000000000000000000000000000000000000000000081525060400191505060405180910390fd5b62000e8a62000d42565b151562000eff576040517f08c379a00000000000000000000000000000000000000000000000000000000081526004018080602001828103825260208152602001807f46696e616c697a61626c6543726f776473616c653a206e6f7420636c6f73656481525060200191505060405180910390fd5b6001600760006101000a81548160ff02191690831515021790555062000f2462001a33565b7f9270cc390c096600a1c17c44345a1ba689fafd99d97487b10cfccf86cf73183660405160405180910390a1565b600060045462000f6162000d78565b1015905090565b6000600160009054906101000a900473ffffffffffffffffffffffffffffffffffffffff16905090565b62000f9c6200113e565b151562001011576040517f08c379a00000000000000000000000000000000000000000000000000000000081526004018080602001828103825260208152602001807f4f776e61626c653a2063616c6c6572206973206e6f7420746865206f776e657281525060200191505060405180910390fd5b600073ffffffffffffffffffffffffffffffffffffffff16600a60009054906101000a900473ffffffffffffffffffffffffffffffffffffffff1673ffffffffffffffffffffffffffffffffffffffff167f8be0079c531659141344cd1fd0a4f28419497f9722a3daafe3b4186f6b6457e060405160405180910390a36000600a60006101000a81548173ffffffffffffffffffffffffffffffffffffffff021916908373ffffffffffffffffffffffffffffffffffffffff160217905550565b600f60009054906101000a900473ffffffffffffffffffffffffffffffffffffffff1681565b60006008546200110762000d78565b1015905090565b600d5481565b6000600a60009054906101000a900473ffffffffffffffffffffffffffffffffffffffff16905090565b6000600a60009054906101000a900473ffffffffffffffffffffffffffffffffffffffff1673ffffffffffffffffffffffffffffffffffffffff166200118362000b9c565b73ffffffffffffffffffffffffffffffffffffffff1614905090565b60175481565b601160009054906101000a900473ffffffffffffffffffffffffffffffffffffffff1681565b601060009054906101000a900473ffffffffffffffffffffffffffffffffffffffff1681565b620011fb6200113e565b151562001270576040517f08c379a00000000000000000000000000000000000000000000000000000000081526004018080602001828103825260208152602001807f4f776e61626c653a2063616c6c6572206973206e6f7420746865206f776e657281525060200191505060405180910390fd5b6001808111156200127d57fe5b811415620012b9576001601960006101000a81548160ff02191690836001811115620012a557fe5b0217905550601b54601c81905550620013a0565b60006001811115620012c757fe5b8114156200139f57600180811115620012dc57fe5b601960009054906101000a900460ff166001811115620012f857fe5b1415151562001395576040517f08c379a000000000000000000000000000000000000000000000000000000000815260040180806020018281038252603d8152602001807f4a6f7669546f6b656e43726f776473616c653a2043616e74206368616e67652081526020017f7374616765206261636b20746f2050726549434f2066726f6d2049434f00000081525060400191505060405180910390fd5b601a54601c819055505b5b50565b60165481565b6000600760009054906101000a900460ff16905090565b601560009054906101000a900473ffffffffffffffffffffffffffffffffffffffff1681565b6000600554905090565b60125481565b6000601860008373ffffffffffffffffffffffffffffffffffffffff1673ffffffffffffffffffffffffffffffffffffffff168152602001908152602001600020549050919050565b62001449620013a9565b1515620014e4576040517f08c379a00000000000000000000000000000000000000000000000000000000081526004018080602001828103825260228152602001807f526566756e6461626c6543726f776473616c653a206e6f742066696e616c697a81526020017f656400000000000000000000000000000000000000000000000000000000000081525060400191505060405180910390fd5b620014ee620010f8565b1515156200158a576040517f08c379a00000000000000000000000000000000000000000000000000000000081526004018080602001828103825260218152602001807f526566756e6461626c6543726f776473616c653a20676f616c2072656163686581526020017f640000000000000000000000000000000000000000000000000000000000000081525060400191505060405180910390fd5b600960009054906101000a900473ffffffffffffffffffffffffffffffffffffffff1673ffffffffffffffffffffffffffffffffffffffff166351cff8d9826040518263ffffffff167c0100000000000000000000000000000000000000000000000000000000028152600401808273ffffffffffffffffffffffffffffffffffffffff1673ffffffffffffffffffffffffffffffffffffffff168152602001915050600060405180830381600087803b1580156200164857600080fd5b505af11580156200165d573d6000803e3d6000fd5b5050505050565b601960009054906101000a900460ff1681565b601a5481565b60186020528060005260406000206000915090505481565b601460009054906101000a900473ffffffffffffffffffffffffffffffffffffffff1681565b620016c56200113e565b15156200173a576040517f08c379a00000000000000000000000000000000000000000000000000000000081526004018080602001828103825260208152602001807f4f776e61626c653a2063616c6c6572206973206e6f7420746865206f776e657281525060200191505060405180910390fd5b620017458162002323565b50565b600e5481565b60008060019054906101000a900473ffffffffffffffffffffffffffffffffffffffff16905090565b620017838282620024af565b6000601860008473ffffffffffffffffffffffffffffffffffffffff1673ffffffffffffffffffffffffffffffffffffffff1681526020019081526020016000205490506000620017de83836200182790919063ffffffff16565b90506016548110158015620017f557506017548111155b15156200180157600080fd5b50505050565b600062001820601c54836200253e90919063ffffffff16565b9050919050565b6000808284019050838110151515620018a8576040517f08c379a000000000000000000000000000000000000000000000000000000000815260040180806020018281038252601b8152602001807f536166654d6174683a206164646974696f6e206f766572666c6f77000000000081525060200191505060405180910390fd5b8091505092915050565b620018be82826200260f565b5050565b620018ce828262002772565b6200192281601860008573ffffffffffffffffffffffffffffffffffffffff1673ffffffffffffffffffffffffffffffffffffffff168152602001908152602001600020546200182790919063ffffffff16565b601860008473ffffffffffffffffffffffffffffffffffffffff1673ffffffffffffffffffffffffffffffffffffffff168152602001908152602001600020819055505050565b600060018111156200197757fe5b601960009054906101000a900460ff1660018111156200199357fe5b1415620019f157620019a462000f68565b73ffffffffffffffffffffffffffffffffffffffff166108fc349081150290604051600060405180830381858888f19350505050158015620019ea573d6000803e3d6000fd5b5062001a2d565b600180811115620019fe57fe5b601960009054906101000a900460ff16600181111562001a1a57fe5b141562001a2c5762001a2b62002776565b5b5b565b5050565b62001a3d620010f8565b1562002317576000601d60009054906101000a900473ffffffffffffffffffffffffffffffffffffffff16905060008173ffffffffffffffffffffffffffffffffffffffff166318160ddd6040518163ffffffff167c010000000000000000000000000000000000000000000000000000000002815260040160206040518083038186803b15801562001acf57600080fd5b505afa15801562001ae4573d6000803e3d6000fd5b505050506040513d602081101562001afb57600080fd5b81019080805190602001909291905050509050600062001b3c600b5462001b2d6064856200253e90919063ffffffff16565b6200285990919063ffffffff16565b9050600062001b6c606462001b5d600c54856200253e90919063ffffffff16565b6200285990919063ffffffff16565b9050600062001b9c606462001b8d600d54866200253e90919063ffffffff16565b6200285990919063ffffffff16565b9050600062001bcc606462001bbd600e54876200253e90919063ffffffff16565b6200285990919063ffffffff16565b905062001bd86200174e565b600f60009054906101000a900473ffffffffffffffffffffffffffffffffffffffff1660125462001c0862002d6b565b808473ffffffffffffffffffffffffffffffffffffffff1673ffffffffffffffffffffffffffffffffffffffff1681526020018373ffffffffffffffffffffffffffffffffffffffff1673ffffffffffffffffffffffffffffffffffffffff1681526020018281526020019350505050604051809103906000f08015801562001c95573d6000803e3d6000fd5b50601360006101000a81548173ffffffffffffffffffffffffffffffffffffffff021916908373ffffffffffffffffffffffffffffffffffffffff16021790555062001ce06200174e565b601060009054906101000a900473ffffffffffffffffffffffffffffffffffffffff1660125462001d1062002d6b565b808473ffffffffffffffffffffffffffffffffffffffff1673ffffffffffffffffffffffffffffffffffffffff1681526020018373ffffffffffffffffffffffffffffffffffffffff1673ffffffffffffffffffffffffffffffffffffffff1681526020018281526020019350505050604051809103906000f08015801562001d9d573d6000803e3d6000fd5b50601460006101000a81548173ffffffffffffffffffffffffffffffffffffffff021916908373ffffffffffffffffffffffffffffffffffffffff16021790555062001de86200174e565b601160009054906101000a900473ffffffffffffffffffffffffffffffffffffffff1660125462001e1862002d6b565b808473ffffffffffffffffffffffffffffffffffffffff1673ffffffffffffffffffffffffffffffffffffffff1681526020018373ffffffffffffffffffffffffffffffffffffffff1673ffffffffffffffffffffffffffffffffffffffff1681526020018281526020019350505050604051809103906000f08015801562001ea5573d6000803e3d6000fd5b50601560006101000a81548173ffffffffffffffffffffffffffffffffffffffff021916908373ffffffffffffffffffffffffffffffffffffffff1602179055508573ffffffffffffffffffffffffffffffffffffffff166340c10f19601360009054906101000a900473ffffffffffffffffffffffffffffffffffffffff16856040518363ffffffff167c0100000000000000000000000000000000000000000000000000000000028152600401808373ffffffffffffffffffffffffffffffffffffffff1673ffffffffffffffffffffffffffffffffffffffff16815260200182815260200192505050602060405180830381600087803b15801562001fac57600080fd5b505af115801562001fc1573d6000803e3d6000fd5b505050506040513d602081101562001fd857600080fd5b8101908080519060200190929190505050508573ffffffffffffffffffffffffffffffffffffffff166340c10f19601460009054906101000a900473ffffffffffffffffffffffffffffffffffffffff16846040518363ffffffff167c0100000000000000000000000000000000000000000000000000000000028152600401808373ffffffffffffffffffffffffffffffffffffffff1673ffffffffffffffffffffffffffffffffffffffff16815260200182815260200192505050602060405180830381600087803b158015620020b057600080fd5b505af1158015620020c5573d6000803e3d6000fd5b505050506040513d6020811015620020dc57600080fd5b8101908080519060200190929190505050508573ffffffffffffffffffffffffffffffffffffffff166340c10f19601560009054906101000a900473ffffffffffffffffffffffffffffffffffffffff16836040518363ffffffff167c0100000000000000000000000000000000000000000000000000000000028152600401808373ffffffffffffffffffffffffffffffffffffffff1673ffffffffffffffffffffffffffffffffffffffff16815260200182815260200192505050602060405180830381600087803b158015620021b457600080fd5b505af1158015620021c9573d6000803e3d6000fd5b505050506040513d6020811015620021e057600080fd5b8101908080519060200190929190505050508573ffffffffffffffffffffffffffffffffffffffff1663986502756040518163ffffffff167c0100000000000000000000000000000000000000000000000000000000028152600401600060405180830381600087803b1580156200225757600080fd5b505af11580156200226c573d6000803e3d6000fd5b50505050601d60009054906101000a900473ffffffffffffffffffffffffffffffffffffffff1673ffffffffffffffffffffffffffffffffffffffff16633f4ba83a6040518163ffffffff167c0100000000000000000000000000000000000000000000000000000000028152600401600060405180830381600087803b158015620022f757600080fd5b505af11580156200230c573d6000803e3d6000fd5b505050505050505050505b62002321620028a5565b565b600073ffffffffffffffffffffffffffffffffffffffff168173ffffffffffffffffffffffffffffffffffffffff1614151515620023ef576040517f08c379a00000000000000000000000000000000000000000000000000000000081526004018080602001828103825260268152602001807f4f776e61626c653a206e6577206f776e657220697320746865207a65726f206181526020017f646472657373000000000000000000000000000000000000000000000000000081525060400191505060405180910390fd5b8073ffffffffffffffffffffffffffffffffffffffff16600a60009054906101000a900473ffffffffffffffffffffffffffffffffffffffff1673ffffffffffffffffffffffffffffffffffffffff167f8be0079c531659141344cd1fd0a4f28419497f9722a3daafe3b4186f6b6457e060405160405180910390a380600a60006101000a81548173ffffffffffffffffffffffffffffffffffffffff021916908373ffffffffffffffffffffffffffffffffffffffff16021790555050565b620024b962000d88565b15156200252e576040517f08c379a00000000000000000000000000000000000000000000000000000000081526004018080602001828103825260188152602001807f54696d656443726f776473616c653a206e6f74206f70656e000000000000000081525060200191505060405180910390fd5b6200253a828262002aa8565b5050565b60008083141562002553576000905062002609565b600082840290508284828115156200256757fe5b0414151562002604576040517f08c379a00000000000000000000000000000000000000000000000000000000081526004018080602001828103825260218152602001807f536166654d6174683a206d756c7469706c69636174696f6e206f766572666c6f81526020017f770000000000000000000000000000000000000000000000000000000000000081525060400191505060405180910390fd5b809150505b92915050565b620026196200174e565b73ffffffffffffffffffffffffffffffffffffffff166340c10f1983836040518363ffffffff167c0100000000000000000000000000000000000000000000000000000000028152600401808373ffffffffffffffffffffffffffffffffffffffff1673ffffffffffffffffffffffffffffffffffffffff16815260200182815260200192505050602060405180830381600087803b158015620026bc57600080fd5b505af1158015620026d1573d6000803e3d6000fd5b505050506040513d6020811015620026e857600080fd5b810190808051906020019092919050505015156200276e576040517f08c379a000000000000000000000000000000000000000000000000000000000815260040180806020018281038252601f8152602001807f4d696e74656443726f776473616c653a206d696e74696e67206661696c65640081525060200191505060405180910390fd5b5050565b5050565b600960009054906101000a900473ffffffffffffffffffffffffffffffffffffffff1673ffffffffffffffffffffffffffffffffffffffff1663f340fa0134620027bf62000b9c565b6040518363ffffffff167c0100000000000000000000000000000000000000000000000000000000028152600401808273ffffffffffffffffffffffffffffffffffffffff1673ffffffffffffffffffffffffffffffffffffffff1681526020019150506000604051808303818588803b1580156200283d57600080fd5b505af115801562002852573d6000803e3d6000fd5b5050505050565b60006200289d83836040805190810160405280601a81526020017f536166654d6174683a206469766973696f6e206279207a65726f00000000000081525062002b50565b905092915050565b620028af620010f8565b15620029fb57600960009054906101000a900473ffffffffffffffffffffffffffffffffffffffff1673ffffffffffffffffffffffffffffffffffffffff166343d726d66040518163ffffffff167c0100000000000000000000000000000000000000000000000000000000028152600401600060405180830381600087803b1580156200293c57600080fd5b505af115801562002951573d6000803e3d6000fd5b50505050600960009054906101000a900473ffffffffffffffffffffffffffffffffffffffff1673ffffffffffffffffffffffffffffffffffffffff16639af6549a6040518163ffffffff167c0100000000000000000000000000000000000000000000000000000000028152600401600060405180830381600087803b158015620029dc57600080fd5b505af1158015620029f1573d6000803e3d6000fd5b5050505062002a9c565b600960009054906101000a900473ffffffffffffffffffffffffffffffffffffffff1673ffffffffffffffffffffffffffffffffffffffff16638c52dc416040518163ffffffff167c0100000000000000000000000000000000000000000000000000000000028152600401600060405180830381600087803b15801562002a8257600080fd5b505af115801562002a97573d6000803e3d6000fd5b505050505b62002aa662002c1f565b565b62002ab4828262002c21565b60045462002ad58262002ac662000d78565b6200182790919063ffffffff16565b1115151562002b4c576040517f08c379a000000000000000000000000000000000000000000000000000000000815260040180806020018281038252601d8152602001807f43617070656443726f776473616c653a2063617020657863656564656400000081525060200191505060405180910390fd5b5050565b60008083118290151562002c02576040517f08c379a00000000000000000000000000000000000000000000000000000000081526004018080602001828103825283818151815260200191508051906020019080838360005b8381101562002bc657808201518184015260208101905062002ba9565b50505050905090810190601f16801562002bf45780820380516001836020036101000a031916815260200191505b509250505060405180910390fd5b506000838581151562002c1157fe5b049050809150509392505050565b565b600073ffffffffffffffffffffffffffffffffffffffff168273ffffffffffffffffffffffffffffffffffffffff161415151562002ced576040517f08c379a000000000000000000000000000000000000000000000000000000000815260040180806020018281038252602a8152602001807f43726f776473616c653a2062656e656669636961727920697320746865207a6581526020017f726f20616464726573730000000000000000000000000000000000000000000081525060400191505060405180910390fd5b6000811415151562002d67576040517f08c379a00000000000000000000000000000000000000000000000000000000081526004018080602001828103825260198152602001807f43726f776473616c653a20776569416d6f756e7420697320300000000000000081525060200191505060405180910390fd5b5050565b6040516109e38062002d7d8339019056fe608060405234801561001057600080fd5b506040516060806109e38339810180604052606081101561003057600080fd5b8101908080519060200190929190805190602001909291908051906020019092919050505042811115156100f2576040517f08c379a00000000000000000000000000000000000000000000000000000000081526004018080602001828103825260328152602001807f546f6b656e54696d656c6f636b3a2072656c656173652074696d65206973206281526020017f65666f72652063757272656e742074696d65000000000000000000000000000081525060400191505060405180910390fd5b826000806101000a81548173ffffffffffffffffffffffffffffffffffffffff021916908373ffffffffffffffffffffffffffffffffffffffff16021790555081600160006101000a81548173ffffffffffffffffffffffffffffffffffffffff021916908373ffffffffffffffffffffffffffffffffffffffff160217905550806002819055505050506108578061018c6000396000f3fe608060405260043610610062576000357c0100000000000000000000000000000000000000000000000000000000900463ffffffff16806338af3eed1461006757806386d1a69f146100be578063b91d4001146100d5578063fc0c546a14610100575b600080fd5b34801561007357600080fd5b5061007c610157565b604051808273ffffffffffffffffffffffffffffffffffffffff1673ffffffffffffffffffffffffffffffffffffffff16815260200191505060405180910390f35b3480156100ca57600080fd5b506100d3610181565b005b3480156100e157600080fd5b506100ea610429565b6040518082815260200191505060405180910390f35b34801561010c57600080fd5b50610115610433565b604051808273ffffffffffffffffffffffffffffffffffffffff1673ffffffffffffffffffffffffffffffffffffffff16815260200191505060405180910390f35b6000600160009054906101000a900473ffffffffffffffffffffffffffffffffffffffff16905090565b6002544210151515610221576040517f08c379a00000000000000000000000000000000000000000000000000000000081526004018080602001828103825260328152602001807f546f6b656e54696d656c6f636b3a2063757272656e742074696d65206973206281526020017f65666f72652072656c656173652074696d65000000000000000000000000000081525060400191505060405180910390fd5b60008060009054906101000a900473ffffffffffffffffffffffffffffffffffffffff1673ffffffffffffffffffffffffffffffffffffffff166370a08231306040518263ffffffff167c0100000000000000000000000000000000000000000000000000000000028152600401808273ffffffffffffffffffffffffffffffffffffffff1673ffffffffffffffffffffffffffffffffffffffff16815260200191505060206040518083038186803b1580156102dd57600080fd5b505afa1580156102f1573d6000803e3d6000fd5b505050506040513d602081101561030757600080fd5b810190808051906020019092919050505090506000811115156103b8576040517f08c379a00000000000000000000000000000000000000000000000000000000081526004018080602001828103825260238152602001807f546f6b656e54696d656c6f636b3a206e6f20746f6b656e7320746f2072656c6581526020017f617365000000000000000000000000000000000000000000000000000000000081525060400191505060405180910390fd5b610426600160009054906101000a900473ffffffffffffffffffffffffffffffffffffffff16826000809054906101000a900473ffffffffffffffffffffffffffffffffffffffff1673ffffffffffffffffffffffffffffffffffffffff1661045c9092919063ffffffff16565b50565b6000600254905090565b60008060009054906101000a900473ffffffffffffffffffffffffffffffffffffffff16905090565b610544838473ffffffffffffffffffffffffffffffffffffffff1663a9059cbb90507c0100000000000000000000000000000000000000000000000000000000028484604051602401808373ffffffffffffffffffffffffffffffffffffffff1673ffffffffffffffffffffffffffffffffffffffff16815260200182815260200192505050604051602081830303815290604052907bffffffffffffffffffffffffffffffffffffffffffffffffffffffff19166020820180517bffffffffffffffffffffffffffffffffffffffffffffffffffffffff8381831617835250505050610549565b505050565b6105688273ffffffffffffffffffffffffffffffffffffffff166107df565b15156105dc576040517f08c379a000000000000000000000000000000000000000000000000000000000815260040180806020018281038252601f8152602001807f5361666545524332303a2063616c6c20746f206e6f6e2d636f6e74726163740081525060200191505060405180910390fd5b600060608373ffffffffffffffffffffffffffffffffffffffff16836040518082805190602001908083835b60208310151561062d5780518252602082019150602081019050602083039250610608565b6001836020036101000a0380198251168184511680821785525050505050509050019150506000604051808303816000865af19150503d806000811461068f576040519150601f19603f3d011682016040523d82523d6000602084013e610694565b606091505b509150915081151561070e576040517f08c379a00000000000000000000000000000000000000000000000000000000081526004018080602001828103825260208152602001807f5361666545524332303a206c6f772d6c6576656c2063616c6c206661696c656481525060200191505060405180910390fd5b6000815111156107d95780806020019051602081101561072d57600080fd5b810190808051906020019092919050505015156107d8576040517f08c379a000000000000000000000000000000000000000000000000000000000815260040180806020018281038252602a8152602001807f5361666545524332303a204552433230206f7065726174696f6e20646964206e81526020017f6f7420737563636565640000000000000000000000000000000000000000000081525060400191505060405180910390fd5b5b50505050565b60008060007fc5d2460186f7233c927e7db2dcc703c0e500b653ca82273b7bfad8045d85a4706001029050833f9150808214158015610822575060006001028214155b9250505091905056fea165627a7a72305820a5611ddb2c8be6679fb1a80ce823363cff4f6aacb06944de98d5be577fc824760029a165627a7a72305820aa24904b525286350bc7bef09b495610a7bcbbc932d532dd1fd93358495df2870029608060405234801561001057600080fd5b5060405160208061188c8339810180604052602081101561003057600080fd5b8101908080519060200190929190505050600061005a610236640100000000026401000000009004565b9050806000806101000a81548173ffffffffffffffffffffffffffffffffffffffff021916908373ffffffffffffffffffffffffffffffffffffffff1602179055507f4101e71e974f68df5e9730cc223280b41654676bbb052cdcc735c3337e64d2d981604051808273ffffffffffffffffffffffffffffffffffffffff1673ffffffffffffffffffffffffffffffffffffffff16815260200191505060405180910390a150600073ffffffffffffffffffffffffffffffffffffffff168173ffffffffffffffffffffffffffffffffffffffff16141515156101cb576040517f08c379a000000000000000000000000000000000000000000000000000000000815260040180806020018281038252602d8152602001807f526566756e64457363726f773a2062656e65666963696172792069732074686581526020017f207a65726f20616464726573730000000000000000000000000000000000000081525060400191505060405180910390fd5b80600260016101000a81548173ffffffffffffffffffffffffffffffffffffffff021916908373ffffffffffffffffffffffffffffffffffffffff1602179055506000600260006101000a81548160ff0219169083600281111561022b57fe5b02179055505061023e565b600033905090565b61163f8061024d6000396000f3fe6080604052600436106100ba576000357c0100000000000000000000000000000000000000000000000000000000900463ffffffff1680632348238c146100bf57806338af3eed1461011057806343d726d61461016757806351cff8d91461017e5780636809691a146101cf578063685ca194146102205780638c52dc41146102895780639af6549a146102a0578063c19d93fb146102b7578063c6dbdf61146102f0578063e3a9db1a14610347578063f340fa01146103ac575b600080fd5b3480156100cb57600080fd5b5061010e600480360360208110156100e257600080fd5b81019080803573ffffffffffffffffffffffffffffffffffffffff1690602001909291905050506103f0565b005b34801561011c57600080fd5b50610125610652565b604051808273ffffffffffffffffffffffffffffffffffffffff1673ffffffffffffffffffffffffffffffffffffffff16815260200191505060405180910390f35b34801561017357600080fd5b5061017c61067c565b005b34801561018a57600080fd5b506101cd600480360360208110156101a157600080fd5b81019080803573ffffffffffffffffffffffffffffffffffffffff169060200190929190505050610881565b005b3480156101db57600080fd5b5061021e600480360360208110156101f257600080fd5b81019080803573ffffffffffffffffffffffffffffffffffffffff169060200190929190505050610930565b005b34801561022c57600080fd5b5061026f6004803603602081101561024357600080fd5b81019080803573ffffffffffffffffffffffffffffffffffffffff169060200190929190505050610b25565b604051808215151515815260200191505060405180910390f35b34801561029557600080fd5b5061029e610b57565b005b3480156102ac57600080fd5b506102b5610d5d565b005b3480156102c357600080fd5b506102cc610ea1565b604051808260028111156102dc57fe5b60ff16815260200191505060405180910390f35b3480156102fc57600080fd5b50610305610eb8565b604051808273ffffffffffffffffffffffffffffffffffffffff1673ffffffffffffffffffffffffffffffffffffffff16815260200191505060405180910390f35b34801561035357600080fd5b506103966004803603602081101561036a57600080fd5b81019080803573ffffffffffffffffffffffffffffffffffffffff169060200190929190505050610ee1565b6040518082815260200191505060405180910390f35b6103ee600480360360208110156103c257600080fd5b81019080803573ffffffffffffffffffffffffffffffffffffffff169060200190929190505050610f2a565b005b6000809054906101000a900473ffffffffffffffffffffffffffffffffffffffff1673ffffffffffffffffffffffffffffffffffffffff16610430610ff9565b73ffffffffffffffffffffffffffffffffffffffff161415156104e1576040517f08c379a000000000000000000000000000000000000000000000000000000000815260040180806020018281038252602c8152602001807f5365636f6e646172793a2063616c6c6572206973206e6f74207468652070726981526020017f6d617279206163636f756e74000000000000000000000000000000000000000081525060400191505060405180910390fd5b600073ffffffffffffffffffffffffffffffffffffffff168173ffffffffffffffffffffffffffffffffffffffff16141515156105ac576040517f08c379a000000000000000000000000000000000000000000000000000000000815260040180806020018281038252602a8152602001807f5365636f6e646172793a206e6577207072696d61727920697320746865207a6581526020017f726f20616464726573730000000000000000000000000000000000000000000081525060400191505060405180910390fd5b806000806101000a81548173ffffffffffffffffffffffffffffffffffffffff021916908373ffffffffffffffffffffffffffffffffffffffff1602179055507f4101e71e974f68df5e9730cc223280b41654676bbb052cdcc735c3337e64d2d981604051808273ffffffffffffffffffffffffffffffffffffffff1673ffffffffffffffffffffffffffffffffffffffff16815260200191505060405180910390a150565b6000600260019054906101000a900473ffffffffffffffffffffffffffffffffffffffff16905090565b6000809054906101000a900473ffffffffffffffffffffffffffffffffffffffff1673ffffffffffffffffffffffffffffffffffffffff166106bc610ff9565b73ffffffffffffffffffffffffffffffffffffffff1614151561076d576040517f08c379a000000000000000000000000000000000000000000000000000000000815260040180806020018281038252602c8152602001807f5365636f6e646172793a2063616c6c6572206973206e6f74207468652070726981526020017f6d617279206163636f756e74000000000000000000000000000000000000000081525060400191505060405180910390fd5b6000600281111561077a57fe5b600260009054906101000a900460ff16600281111561079557fe5b141515610830576040517f08c379a00000000000000000000000000000000000000000000000000000000081526004018080602001828103825260298152602001807f526566756e64457363726f773a2063616e206f6e6c7920636c6f73652077686981526020017f6c6520616374697665000000000000000000000000000000000000000000000081525060400191505060405180910390fd5b60028060006101000a81548160ff0219169083600281111561084e57fe5b02179055507f088672c3a6e342f7cd94a65ba63b79df24a8973927b4d05d803c44bbf787d12f60405160405180910390a1565b61088a81610b25565b1515610924576040517f08c379a00000000000000000000000000000000000000000000000000000000081526004018080602001828103825260338152602001807f436f6e646974696f6e616c457363726f773a207061796565206973206e6f742081526020017f616c6c6f77656420746f2077697468647261770000000000000000000000000081525060400191505060405180910390fd5b61092d81611001565b50565b6000809054906101000a900473ffffffffffffffffffffffffffffffffffffffff1673ffffffffffffffffffffffffffffffffffffffff16610970610ff9565b73ffffffffffffffffffffffffffffffffffffffff16141515610a21576040517f08c379a000000000000000000000000000000000000000000000000000000000815260040180806020018281038252602c8152602001807f5365636f6e646172793a2063616c6c6572206973206e6f74207468652070726981526020017f6d617279206163636f756e74000000000000000000000000000000000000000081525060400191505060405180910390fd5b6000600160008373ffffffffffffffffffffffffffffffffffffffff1673ffffffffffffffffffffffffffffffffffffffff1681526020019081526020016000205490506000600160008473ffffffffffffffffffffffffffffffffffffffff1673ffffffffffffffffffffffffffffffffffffffff16815260200190815260200160002081905550610ad3818373ffffffffffffffffffffffffffffffffffffffff1661121490919063ffffffff16565b8173ffffffffffffffffffffffffffffffffffffffff167f7084f5476618d8e60b11ef0d7d3f06914655adb8793e28ff7f018d4c76d505d5826040518082815260200191505060405180910390a25050565b600060016002811115610b3457fe5b600260009054906101000a900460ff166002811115610b4f57fe5b149050919050565b6000809054906101000a900473ffffffffffffffffffffffffffffffffffffffff1673ffffffffffffffffffffffffffffffffffffffff16610b97610ff9565b73ffffffffffffffffffffffffffffffffffffffff16141515610c48576040517f08c379a000000000000000000000000000000000000000000000000000000000815260040180806020018281038252602c8152602001807f5365636f6e646172793a2063616c6c6572206973206e6f74207468652070726981526020017f6d617279206163636f756e74000000000000000000000000000000000000000081525060400191505060405180910390fd5b60006002811115610c5557fe5b600260009054906101000a900460ff166002811115610c7057fe5b141515610d0b576040517f08c379a00000000000000000000000000000000000000000000000000000000081526004018080602001828103825260328152602001807f526566756e64457363726f773a2063616e206f6e6c7920656e61626c6520726581526020017f66756e6473207768696c6520616374697665000000000000000000000000000081525060400191505060405180910390fd5b6001600260006101000a81548160ff02191690836002811115610d2a57fe5b02179055507f599d8e5a83cffb867d051598c4d70e805d59802d8081c1c7d6dffc5b6aca2b8960405160405180910390a1565b600280811115610d6957fe5b600260009054906101000a900460ff166002811115610d8457fe5b141515610e1f576040517f08c379a00000000000000000000000000000000000000000000000000000000081526004018080602001828103825260388152602001807f526566756e64457363726f773a2062656e65666963696172792063616e206f6e81526020017f6c79207769746864726177207768696c6520636c6f736564000000000000000081525060400191505060405180910390fd5b600260019054906101000a900473ffffffffffffffffffffffffffffffffffffffff1673ffffffffffffffffffffffffffffffffffffffff166108fc3073ffffffffffffffffffffffffffffffffffffffff16319081150290604051600060405180830381858888f19350505050158015610e9e573d6000803e3d6000fd5b50565b6000600260009054906101000a900460ff16905090565b60008060009054906101000a900473ffffffffffffffffffffffffffffffffffffffff16905090565b6000600160008373ffffffffffffffffffffffffffffffffffffffff1673ffffffffffffffffffffffffffffffffffffffff168152602001908152602001600020549050919050565b60006002811115610f3757fe5b600260009054906101000a900460ff166002811115610f5257fe5b141515610fed576040517f08c379a000000000000000000000000000000000000000000000000000000000815260040180806020018281038252602b8152602001807f526566756e64457363726f773a2063616e206f6e6c79206465706f736974207781526020017f68696c652061637469766500000000000000000000000000000000000000000081525060400191505060405180910390fd5b610ff6816113ac565b50565b600033905090565b6000809054906101000a900473ffffffffffffffffffffffffffffffffffffffff1673ffffffffffffffffffffffffffffffffffffffff16611041610ff9565b73ffffffffffffffffffffffffffffffffffffffff161415156110f2576040517f08c379a000000000000000000000000000000000000000000000000000000000815260040180806020018281038252602c8152602001807f5365636f6e646172793a2063616c6c6572206973206e6f74207468652070726981526020017f6d617279206163636f756e74000000000000000000000000000000000000000081525060400191505060405180910390fd5b6000600160008373ffffffffffffffffffffffffffffffffffffffff1673ffffffffffffffffffffffffffffffffffffffff1681526020019081526020016000205490506000600160008473ffffffffffffffffffffffffffffffffffffffff1673ffffffffffffffffffffffffffffffffffffffff168152602001908152602001600020819055508173ffffffffffffffffffffffffffffffffffffffff166108fc829081150290604051600060405180830381858888f193505050501580156111c1573d6000803e3d6000fd5b508173ffffffffffffffffffffffffffffffffffffffff167f7084f5476618d8e60b11ef0d7d3f06914655adb8793e28ff7f018d4c76d505d5826040518082815260200191505060405180910390a25050565b803073ffffffffffffffffffffffffffffffffffffffff1631101515156112a3576040517f08c379a000000000000000000000000000000000000000000000000000000000815260040180806020018281038252601d8152602001807f416464726573733a20696e73756666696369656e742062616c616e636500000081525060200191505060405180910390fd5b60008273ffffffffffffffffffffffffffffffffffffffff168260405180600001905060006040518083038185875af1925050503d8060008114611303576040519150601f19603f3d011682016040523d82523d6000602084013e611308565b606091505b505090508015156113a7576040517f08c379a000000000000000000000000000000000000000000000000000000000815260040180806020018281038252603a8152602001807f416464726573733a20756e61626c6520746f2073656e642076616c75652c207281526020017f6563697069656e74206d6179206861766520726576657274656400000000000081525060400191505060405180910390fd5b505050565b6000809054906101000a900473ffffffffffffffffffffffffffffffffffffffff1673ffffffffffffffffffffffffffffffffffffffff166113ec610ff9565b73ffffffffffffffffffffffffffffffffffffffff1614151561149d576040517f08c379a000000000000000000000000000000000000000000000000000000000815260040180806020018281038252602c8152602001807f5365636f6e646172793a2063616c6c6572206973206e6f74207468652070726981526020017f6d617279206163636f756e74000000000000000000000000000000000000000081525060400191505060405180910390fd5b60003490506114f481600160008573ffffffffffffffffffffffffffffffffffffffff1673ffffffffffffffffffffffffffffffffffffffff1681526020019081526020016000205461158990919063ffffffff16565b600160008473ffffffffffffffffffffffffffffffffffffffff1673ffffffffffffffffffffffffffffffffffffffff168152602001908152602001600020819055508173ffffffffffffffffffffffffffffffffffffffff167f2da466a7b24304f47e87fa2e1e5a81b9831ce54fec19055ce277ca2f39ba42c4826040518082815260200191505060405180910390a25050565b6000808284019050838110151515611609576040517f08c379a000000000000000000000000000000000000000000000000000000000815260040180806020018281038252601b8152602001807f536166654d6174683a206164646974696f6e206f766572666c6f77000000000081525060200191505060405180910390fd5b809150509291505056fea165627a7a72305820781859ef06b67a5be56a8f8a0eef95bcae0d60bc508748ab92cbcee4479be4160029",
  "linkReferences": {},
  "deployedLinkReferences": {}
}